:020000040800F2
:10000000000E002005010008C71F0008191C000889
:10001000C51F0008F3010008633B00080000000052
:100020000000000000000000000000007123000834
:10003000F5010008000000006F230008732300088A
:100040001F0100081F0100081F0100081F01000810
:100050001F0100081F010008F70100082B0200081B
:100060001F01000831020008370200081F010008C4
:100070001F0100081F0100081F0100081F010008E0
:100080001F0100081F0100081F0100081F010008D0
:10009000ED3A00081F0100081F0100083D0200089A
:1000A0001F0100081F0100081F0100081F010008B0
:1000B000F12300081F0100081F0100081F010008AC
:1000C0001F0100081F0100081F0100081F01000890
:1000D0001F0100081F0100081F0100081F01000880
:1000E000FD0100081F0100081F010008DFF810D003
:1000F00000F042F800480047313D0008AFF30080AF
:10010000000E00200648804706480047FEE7FEE74D
:10011000FEE7FEE7FEE7FEE7FEE7FEE7FEE7FEE7B7
:10012000ED230008ED000008D2B201E000F8012B39
:10013000491EFBD270470022F6E710B513460A4667
:1001400004461946FFF7F0FF204610BD30B50B46B8
:10015000014600202022012409E021FA02F59D42F7
:1001600005D303FA02F5491B04FA02F52844151ECB
:10017000A2F10102F1DC30BD064C074D06E0E0685B
:1001800040F0010394E8070098471034AC42F6D3DE
:10019000FFF7B0FF243E0008443E000870B58C18FD
:1001A00010F8015B15F0070301D110F8013B2A118B
:1001B00006D110F8012B03E010F8016B01F8016B78
:1001C0005B1EF9D12B0705D40023521E0DD401F874
:1001D000013BFAE710F8013BCB1A921C03E013F83D
:1001E000015B01F8015B521EF9D5A142D8D3002072
:1001F00070BDFEE77047012000F04AB910B54FF41A
:10020000806000F045F94FF4805000F041F94FF460
:10021000005000F03DF94FF4804000F039F9BDE89E
:1002200010404FF4004000F033B9022000F030B924
:10023000082000F02DB9102000F02AB910B52020B8
:1002400000F026F9402000F023F9802000F020F98A
:10025000BDE810404FF4807000F01AB972B6FEE7A6
:100260002DE9F05FDFF81C820727874E0025874CB9
:10027000012870D0022848D0311588420BD089005F
:10028000884241D18946B246304600F0FDF92C261D
:1002900000286ED0D4E08A46304600F0F5F908B95F
:1002A000A07800B1A5705146B146304600F0ECF997
:1002B000042608B9E07810B1E5705146D0E0E67048
:1002C000FBE72079002875D0D0E05146484600F081
:1002D000DBF910B9607900286DD065715146CB46C5
:1002E000484600F0D1F910B9A07900286FD0A57167
:1002F000D1465146584600F0C7F910B9E0790028B8
:1003000071D0E571C8F800908CE00221B14630460A
:1003100000F0BAF9162608B9A07830B1A57002210C
:10032000484600F0B1F910B103E0A670F7E7E078B5
:1003300030B1E5700221484600F0A6F910B103E0A3
:10034000E670F7E7207938B125710221484600F0C0
:100350009BF918B104E01FE02671F6E7607930B12F
:1003600065710221484600F08FF918B104E066710A
:10037000F7E763E0A07930B1A5710221484600F0AB
:1003800083F910B103E0A671F7E7E07910B1E571E8
:10039000022145E0E671FBE70121304600F074F9E7
:1003A00008B9A07840B1A5700121304600F06CF981
:1003B00020B105E05EE05FE0A770F5E7E07838B1D6
:1003C000E5700121304600F05FF918B104E055E016
:1003D000E770F6E7207938B125710121304600F049
:1003E00053F918B104E04BE02771F6E7607930B1BA
:1003F00065710121304600F047F910B103E06771E3
:10040000F7E7A07930B1A5710121304600F03CF941
:1004100010B103E0A771F7E7E07968B1E571012158
:10042000C8F800101948401E0178B1FBF7F207FB2D
:1004300012110170BDE8F09FE771F0E7A07840B1BC
:10044000A570CB464946D146504600F01DF910B183
:1004500003E0A670F5E7E07850B1E570DA4659465A
:10046000484600F011F900283FF42BAF25712CE726
:10047000E670F3E7267128E766712FE7A67137E784
:10048000E6713FE714040140000C01400100002028
:10049000044910B50A68024202D00860FFF7E0FE86
:1004A00010BD0000140401402DE9F84FDFF8B891A9
:1004B0000024A9F1040B23460F2709F1040AABF12C
:1004C000040EC9E00125A5402A40AA427DD1674E0D
:1004D000D1F804C0ACEB0608B44532D014DCBCF152
:1004E000030F3AD009DCBCF1000F2AD0BCF1010F98
:1004F0001CD0BCF1020F31D11DE0BCF1110F17D09F
:10050000BCF1120F2AD119E0B8F5881F19D006DC0A
:10051000B8F5803F15D0B8F5801F1FD111E0B8F5B0
:10052000001F0ED0B8F5041F18D10AE0CB6815E003
:10053000CB681B1D12E0CB6808330FE0CB680C338F
:100540000CE08B682BB1012B4FF0080303D0456101
:1005500004E0042302E0056100E00023FF2A01D843
:10056000064601E000F104064FEA840501D9A5F131
:100570002005D6F8008007FA05FC28EA0C0803FAE3
:1005800005F548EA0508C6F800804D68ED0062D51B
:10059000374DAE6946F00106AE61AD6924F0030641
:1005A00005F001050095334D06EB050CDCF808500D
:1005B000A607360F07FA06F825EA0805DFF8B8801F
:1005C000404503D14FF0000817E044E0DFF8AC806D
:1005D000404502D14FF001080FE0DFF8A48040450C
:1005E00002D14FF0020808E0DFF89880404502D1C0
:1005F0004FF0030801E04FF0040808FA06F848EA53
:100600000508CCF808804D68D9F80060ED024D4629
:1006100001D5164300E096432E604D68DAF800607D
:10062000AD02554601D5164300E096432E604D6855
:10063000DBF80060AD035D4601D5164300E096434C
:100640002E604D68DEF80060ED03754601D5164357
:1006500000E096432E60641C0D682A46E5407FF456
:1006600031AFBDE8F88F0000080401400000111010
:10067000001002400000014000080140000C014051
:1006800000100140001401408068084000D00120A3
:100690007047000001488068704700005C0000203F
:1006A0000248816802781144816070475C00002034
:1006B000074810B5016841F010010160032000F007
:1006C00075F80F2000F006F800F024F8002010BDA7
:1006D0000020024070B50D4D04464FF47A71287821
:1006E000B1FBF0F00A490968B1FBF0F000F0F4FF4B
:1006F00048B9102C07D200222146501E00F036F8CF
:1007000000206C6070BD012070BD00005C00002006
:10071000680000200C4808B5816941F00101816141
:10072000816901F001010091C16941F08051C1610D
:10073000C06900F0805000900448416821F0E061F9
:1007400041F00071416008BD00100240000001400E
:10075000002809DB00F01F020121914040098000C0
:1007600000F1E020C0F8001170470000F0B40E4B1B
:100770001B680C46C3F30223C3F10705042D00D9FF
:100780000425191D072901D2002300E0DB1E0126E4
:1007900006FA05F1491E214099409E40761E1640FA
:1007A0003143F0BC03F0EEB90CED00E0064900F077
:1007B000070208684FF6FF03184040EA0220034A88
:1007C00010430860704700000CED00E00000FA05DF
:1007D00010B50C0607D501F0070101EB810100EB14
:1007E000C100103005E001EB810100EBC10000F514
:1007F000A87099B232B1012202730181190C4181B2
:10080000002010BD00220273C180F9E7704701EBA0
:10081000810200EBC202D0F8D402526A02F047B95A
:1008200001EB810200EBC202D0F8D402D2F86421BD
:1008300002F0A0B970B504460B0601F0070000EB0A
:10084000800104EBC1014FF001024FF0000502D519
:100850004A74103103E081F8515101F5A871087014
:1008600094F89002012808D084F89022206802F0C1
:10087000D1FD84F89052002070BD022070BD70B58B
:10088000044601F00F002279904201D9012070BD89
:100890000B0601F0070000EB800104EBC1014FF0F3
:1008A00001024FF0000502D54A74103103E081F8CF
:1008B000515101F5A8718D70087094F890020128CB
:1008C00008D084F89022206802F041FE84F890520B
:1008D000002070BD022070BD2DE9F05F04685FEA62
:1008E000424C0B788D69B4F850C04FF000064BF6BF
:1008F0008F7948F2800A48F68F7B48F2C00E4FF499
:1009000080672AD54FF0020808EBC308C44407EB00
:100910004C07E45BC4F30904A54203D32D1B8D618E
:1009200001D00BE08E61066836F8235005EA090510
:1009300085F4005545EA0A0526F82350520609D5E4
:100940000D78036833F8252002EA0B0242EA0E0212
:1009500023F8252084B30A8929E04FF0060808EB24
:10096000C308C44407EB4C07E45BC4F30904A54285
:1009700003D32D1B8D6101D00BE08E61066836F824
:10098000235005EA090585F4005545EA0A0526F8CD
:100990002350520609D40B78056835F8232002EA63
:1009A0000B0242EA0E0225F823202CB14A8949693C
:1009B0000068234603F0A4F82046BDE8F09F2DE927
:1009C000F05F054600680C465FEA426C16468B698C
:1009D0002278B0F850C048F68F774CF280094FF477
:1009E000004B4FF6FF7E4FF4806A4FF0000172D546
:1009F0004FF0020808EBC208E0440AEB480C30F85C
:100A00000C00C0F30900834211D91B1AA3610FD057
:100A1000730407D52E6836F822303B4043EA0903B9
:100A200026F8223094F82420012A47D052E1A1610F
:100A3000607810B1012813D01AE02868B0F850305F
:100A4000184400EB0210B0F80424C2F30902A0F825
:100A50000424B0F8042442F40042A0F8042407E07F
:100A60002868B0F85030184400EB0210A0F80414C5
:100A70006278286812B1012A11D018E0B0F850103D
:100A80000844217800EB0110B0F80C14C1F30901FF
:100A9000A0F80C14B0F80C1441F4004105E0B0F8D3
:100AA00050201044227800EB0210A0F80C1421789A
:100AB0002846FFF7ACFE700472D40BE16269024471
:100AC0006261E2690244E2612369226A9A4203D3C5
:100AD0001846111A04E03EE084F824100AB11046CA
:100AE0002162617811B1012929D031E02968B1F87A
:100AF00050201144227801EB0211B1F80424C2F312
:100B00000902A1F8042401F204413E2807D9420950
:100B1000C30600D1521E0B884BEA822207E048B17F
:100B20004208C30700D0521C0B880EEA82221343EE
:100B30000B800DE00A8842F400420A8008E0296830
:100B4000B1F850201144227801EB0211A1F80404FD
:100B500083B22289BAE04FF0060808EBC208E044ED
:100B60000AEB480C30F80C00C0F30900834211D3A3
:100B70001B1AA3610FD0730407D42E6836F82230F5
:100B80003B4043EA090326F8223094F82420012A46
:100B900051D09FE0A161607818B1012814D01BE00A
:100BA0003FE02868B0F85030184400EB0210B0F86D
:100BB0000424C2F30902A0F80424B0F8042442F487
:100BC0000042A0F8042407E02868B0F85030184428
:100BD00000EB0210A0F804146278286812B1012A10
:100BE00011D018E0B0F850100844217800EB011043
:100BF000B0F80C14C1F30901A0F80C14B0F80C14EF
:100C000041F4004105E0B0F850201044227800EB98
:100C10000210A0F80C1421782846FFF7F8FD7004A4
:100C200058D42278296831F82200384040EA090077
:100C300021F822004EE0626902446261E2690244E6
:100C4000E2612369226A9A4203D31846111A21628B
:100C500004E00AB11046216284F824106278296801
:100C600012B1012A28D02FE0B1F850201144227887
:100C700001EB0211B1F80C24C2F30902A1F80C2413
:100C800001F20C413E2807D94209C30600D1521E89
:100C90000B884BEA822207E048B14208C30700D024
:100CA000521C0B880EEA822213430B800CE00A8848
:100CB00042F400420A8007E0B1F850201144227843
:100CC00001EB0211A1F80C04628983B26169286802
:100CD00002F034FF2278296831F8220048F6BF7309
:100CE000184080F0300048F28003184321F82200B9
:100CF0000020BDE8F09F2DE9F04104460F0601F009
:100D0000070000EB800104EBC1014FF001064FF03A
:100D1000000502D54E74103103E081F8515101F500
:100D2000A871022B08700A61CB7000D10D7194F884
:100D30009002012809D084F89062206802F01AFA23
:100D4000284684F89052BDE8F0810220FBE710B5F8
:100D500001F0070404EB840100EBC101C1E9592350
:100D60000022C1F86C2181F8512181F850410068BE
:100D700001F5A87102F040FC002010BD70B50446DA
:100D80000D4601F007002179884201D9012070BD8C
:100D900029064FF000064FF0010206D500EB800156
:100DA00004EBC1014A74103107E005EB850104EB47
:100DB000C10181F8516101F5A8718A70087094F839
:100DC0009002012807D084F89022206802F0FBFBF3
:100DD000680702D006E0022070BD04F52671206885
:100DE00002F0B3FB84F89062002070BD10B501F0F2
:100DF000070404EB840100EBC101C1E909230122CE
:100E000081F834200B630023CB624A7401F8104F41
:100E1000006802F0F1FB002010BD00001FB5044681
:100E2000006802F069FE010403D5204601F0CCF809
:100E30001FBD41050DD5206830F8441F21F48061A5
:100E40000180204600F000F90021204600F017F94B
:100E50001FBD410405D5206830F8441F21F48041AE
:100E600074E0810405D5206830F8441F21F4005156
:100E70006CE0C10414D5206830F8401F21F0040153
:100E80000180206830F8401F21F0080101802046D1
:100E900000F0EDF8206830F8441F21F4805155E04F
:100EA000010540D5D4F800200020694632F82030F2
:100EB00021F81030401CC0B20828F7D332F8400F98
:100EC00040F001001080206830F8402F22F001022D
:100ED00002802068B0F844205205FBD530F8442F3A
:100EE00022F4806202800020236831F8102023F869
:100EF0002020401CC0B20828F6D3206830F8401FDC
:100F000041F008010180206830F8441F21F400619D
:100F10000180206830F8401F41F004010180204624
:100F200000F0E0F81FBD810509D5206830F8441FA6
:100F300021F400710180204600F09DF81FBDC0051E
:100F4000FCD5206830F8441F21F4807101801FBD5A
:100F50002DE9F041040004D094F89102002518B165
:100F600007E00120BDE8F08184F89052204600F0AF
:100F70004DF8032084F891026571206802F0DEFAD2
:100F800094E80F0002F044FA022698BB0021206882
:100F900002F0CCFD70BB002001270BE000EB8001CC
:100FA00004EBC1014F740874CD740D624D62401C96
:100FB000C0B28D6221798142F0D8002012E000BFDA
:100FC00000EB800104EBC10181F8515181F850011F
:100FD00081F85351C1F86051C1F86451401CC0B24E
:100FE000C1F8685121798142EAD894E80F0002F0F3
:100FF0009CFA10B184F89162B3E7657384F891723A
:10100000206802F090FA0020ACE7000008B5006804
:101010000B49884212D10B48C16941F40001C161FA
:10102000C069002200F40000009011461420FFF770
:101030009DFBBDE808401420FFF78ABB08BD0000F7
:10104000005C00400010024070B504468079012524
:10105000022801D0FFF702F92946D4F8D40201F0A2
:1010600061FED4F8D402BDE8704001F01DBED0F896
:10107000D40201F041BED0F8D40201F047BE10B551
:10108000044690F8900201280AD0012084F89002CA
:101090006173206802F04CFD002084F8900210BDBE
:1010A000022010BDD0F8D42200F52671104601F0C0
:1010B00045BE10B5044690F89002012810D00120DA
:1010C00084F89002206802F008FD01212046FFF715
:1010D0009DFB206802F025FA002084F8900210BDE4
:1010E000022010BD10B50446D0F8D40201F065FE10
:1010F000A07A002804D00348016841F0060101608D
:1011000010BD000010ED00E02DE9F8430546007821
:10111000354CC00754D0E0690026C00008D4E0690F
:1011200040F08050E061E069012600F080500090BE
:101130002E480168C90512D40168804641F48071C7
:101140000160FFF7A7FA074605E000BFFFF7A2FA24
:10115000C01B642823D8D8F80000C005F6D5206A43
:1011600010F4407021D0A98801F4407181421CD054
:10117000206A1F49012220F440700A6000220A60A0
:101180002062C00711D0FFF785FA074641F2883880
:1011900008E000BFFFF77EFAC11B414502D90320DA
:1011A000BDE8F883206A8007F4D5206A696820F4D6
:1011B0004070084320621EB1E06920F08050E06179
:1011C0002878800705D56068A96820F44040084366
:1011D00060602878C00605D56068E96820F4800062
:1011E000084360600020DBE7001002400070004010
:1011F000400442422DE9F0470F46050061D0434EBE
:10120000306800F00700B84209D2306820F00700CB
:1012100038433060306800F00700B84251D1286888
:101220003B4C810712D5400703D5606840F4E0606D
:1012300060602878000703D5606840F46050606003
:101240006068A96820F0F000084360602878C00753
:1012500028D06868012810D02168022810D089079A
:1012600000292EDA616821F0030101436160FFF774
:1012700011FA804641F288390DE021688903EFE7D1
:101280008901EDE7FFF706FAA0EB0801494502D90D
:101290000320BDE8F0876068696800F00C00B0EBDF
:1012A000810FEFD1306800F00700B8420BD93068E9
:1012B00020F0070038433060306800F00700B84283
:1012C00001D00120E5E72878400705D56068E96886
:1012D00020F4E060084360602878000706D5606865
:1012E000296920F4605040EAC100606000F03EF8D7
:1012F0006168084AC1F30311515CC840064908609F
:1013000006480068FFF7E6F90020C2E70020024027
:10131000001002400A3E0008680000206000002023
:101320000148006870470000680000200448054933
:1013300000684968044AC1F30221515CC840704703
:1013400068000020001002401A3E000804480549C9
:1013500000684968044AC1F3C221515CC840704723
:1013600068000020001002401A3E00080E4A516832
:101370000E4801F00C03042B11D0082B0FD10C48A0
:10138000C1F38343C903C05C0AD55168084AC1F35D
:101390004041921E515C054A5043B0FBF1F070474A
:1013A00004494843704700000010024000127A00D0
:1013B000FA3D000800093D002DE9F84F040070D007
:1013C0002078C04DC00749D06868C0F3810001286B
:1013D00007D06868C0F38100022809D16868C0039B
:1013E00006D52868800339D560680028E7D035E045
:1013F0006068B0F5803F0BD010B1B0F5A02F11D0D0
:10140000286820F480302860286820F4802002E0DA
:10141000286840F480302860606890B1FFF73AF99E
:1014200006460AE0286840F480202860F0E700BF04
:10143000FFF730F9801B642873D828688003F7D53C
:101440000CE0FFF727F9064605E000BFFFF722F999
:10145000801B6428F0D828688003F7D420789A4E3F
:1014600080074FF001094FF0000839D5686810F087
:101470000C0F07D06868C0F38100022809D16868A2
:10148000C00306D42868800714D52069012808D134
:1014900010E02069B0B1C6F80090FFF7FBF80746EE
:1014A00005E00AE1FFF7F6F8C01B0228C4D8286857
:1014B0008007F7D52868616920F0F80040EAC1008C
:1014C00028600DE0C6F80080FFF7E4F8074604E066
:1014D000FFF7E0F8C01B022823D828688007F7D45C
:1014E000207800072CD57948A169D9B1C0F80090BF
:1014F000FFF7D0F8074604E0FFF7CCF8C01B02283E
:101500000FD8686A8007F7D571484FF4FA51006820
:10151000B0FBF1F0009000BF0098411E0091FAD29C
:101520000EE080E0C0F80080FFF7B4F8074604E062
:10153000FFF7B0F8C01B022875D8686A8007F7D497
:101540002078400760D5E8690027C00008D4E86922
:1015500040F08050E861E869012700F08050009079
:101560005C480168C90513D40168834641F4807161
:101570000160FFF78FF8824606E000BFFFF78AF8A8
:10158000A0EB0A0064284ED8DBF80000C005F5D5B2
:10159000E06801280AD008B1052813D0286A20F095
:1015A00001002862286A20F0040002E0286A40F066
:1015B00001002862E06841F2883B98B1FFF76AF8C1
:1015C00082460BE0286A40F004002862EEE700BF84
:1015D000FFF760F8A0EB0A0159455AD8286A80073E
:1015E000F6D50CE0FFF756F8824605E0FFF752F813
:1015F000A0EB0A0159454CD8286A8007F6D41FB1E0
:10160000E86920F08050E861E06988B36968C1F357
:101610008101022944D00228C6F8608004D0FFF777
:1016200039F8044638E034E0FFF734F8074604E0C0
:10163000FFF730F8C01B02282BD828688001F7D4A8
:10164000206AB0F5803F05D16868A16820F40030B9
:1016500008436860D4E908010843696821F47411FB
:1016600008436860C6F86090FFF714F8044606E087
:1016700025E000BFFFF70EF8001B022809D82868F4
:101680008001F7D51BE000BFFFF704F8001B02281C
:1016900002D90320BDE8F88F28688001F4D40EE059
:1016A0000128F7D06868226A00F48031914204D1A1
:1016B000616A00F47010884201D00120EAE700203E
:1016C000E8E700000010024000004242800442426D
:1016D000680000200070004010B5401EB0F1807F0F
:1016E00001D3012010BD4FF0E02460610F2160178D
:1016F00002F048FA0020A06107202061002010BD00
:101700007047704770B590F83C20012A26D001241C
:1017100080F83C40022280F83D2003685A689D68AA
:1017200022F070060A6832435A600D4B02689A42F2
:1017300008D0B2F1804F05D00A4B9A4202D00A4B32
:101740009A4204D1496825F080031943916080F8DA
:101750003D40002180F83C10084670BD022070BD5D
:10176000002C0140000400400008004010B50400B7
:1017700003D094F83D0010B107E0012010BD002017
:1017800084F83C00204600F01FF8022084F83D0059
:10179000211D206800F032FE012084F8460084F804
:1017A0003E0084F83F0084F8400084F8410084F84B
:1017B000420084F8430084F8440084F8450084F82B
:1017C0003D00002010BD000008B50068B0F1804F5A
:1017D00012D10A48C16941F00101C161C06900220A
:1017E00000F00100009011461C20FEF7BFFFBDE88D
:1017F00008401C20FEF7ACBF08BD000000100240EE
:1018000090F83D10012901D001207047022180F895
:101810003D100168CA6842F00102CA6000680B49C5
:10182000884208D0B0F1804F05D00949884202D0E3
:101830000849884204D1816801F00701062903D0D4
:10184000016841F00101016000207047002C014057
:10185000000400400008004070B5044690F83C00C9
:101860000025012817D0012684F83C60022084F866
:101870003D002068826822F0770222F47F42826075
:101880000868502838D00DDC20284FD005DC90B3F4
:10189000102811D14AE0022070BD302846D04028DF
:1018A0000AD13BE060282FD070280DD0B0F5805FC2
:1018B00003D0B0F5005F12D0012584F83D60002010
:1018C00084F83C00284670BDCB68D1E9012120682E
:1018D00000F0D0FD2068816841F0770109E0CB6815
:1018E000D1E90121206800F0C5FD2068816841F43C
:1018F00080418160E1E719E0CA684968206800F02A
:10190000CBFD5021206806E0CA684968206800F0D5
:10191000D4FD6021206800F0B7FDCEE7CA684968B1
:10192000206800F0B9FD40212068F4E722680146F4
:101930001046F0E770472DE9F04104460068C6689C
:1019400005694FF00007A90713D5B10711D5F91E96
:10195000016101202077206880698007204602D03D
:10196000FFF7E8FF04E000F07EF8204600F07CF886
:101970002777680716D5700714D521686FF0040023
:101980000861022020772068806910F4407F20469B
:1019900002D0FFF7CFFF04E000F065F8204600F02A
:1019A00063F82777280715D5300713D521686FF01E
:1019B00008000861042020772068C069800720465D
:1019C00002D0FFF7B7FF04E000F04DF8204600F02A
:1019D0004BF82777E80616D5F00614D521686FF086
:1019E00010000861082020772068C06910F4407F4B
:1019F000204602D0FFF79EFF04E000F034F82046B6
:101A000000F032F82777E80708D0F00706D0216801
:101A10006FF001000861204600F028F8280608D57C
:101A2000300606D521686FF0800008612046FFF778
:101A300067FE680608D5700606D521686FF040007D
:101A40000861204600F02CF8A8060AD5B00608D593
:101A500021686FF0200008612046BDE8F041FFF7E3
:101A600050BEBDE8F0817047704700000A4910B5CC
:101A7000884210D1094800F061F90848103000F0A0
:101A80005DF90648203000F059F90448BDE81040DF
:101A9000303000F053B910BDBC0100207C010020A3
:101AA000704770B5040004D094F84100002510B1CF
:101AB00006E0012070BD84F84050204600F024F874
:101AC000242084F841002068C16821F40051C160DD
:101AD000204600F02BFD2068016921F4904101614E
:101AE0002068416921F02A0141612068C16841F400
:101AF0000051C1606564202084F8410084F84200F0
:101B00006563002070BD000030B585B000240094EE
:101B100001940294039400681449884224D1144823
:101B2000816941F480418161816901F480410491BE
:101B3000816941F00401816180690E4D00F004006B
:101B400004904FF400700090022001900320039055
:101B500069462846FEF7A8FC2815CDE90004694629
:101B600028460294FEF7A0FC05B030BD00380140C5
:101B700000100240000801402DE9F843044690F8A7
:101B80004100984616460D46202802D00220BDE8A6
:101B9000F88385B17EB100206064212084F8410083
:101BA000FEF778FDA6848146E684A0682027B0F57C
:101BB000805F02D003E00120E9E7206910B12E46E2
:101BC00000250EE000260CE08021204600F00AFDF2
:101BD000A8B9C6B116F8010B21684860E08C401E18
:101BE000E084E08C4B464FF00002CDF800800028E6
:101BF000EAD14FF04001204600F0F4FC40B184F8F7
:101C000041700320C3E735F8020BC0F30800E3E797
:101C100084F841700020BAE7FEE70000F0B5002329
:101C20000A24302537261F4611E000BFB4EB107F91
:101C300002D905EB107C01E006EB107C01F813C023
:101C400001EB430C00015B1C8CF80170DBB293428A
:101C5000ECD3F0BD084807490A15016082800222D2
:101C6000016182820122016282840163891481867A
:101C700070470000000C01407C01002070B500247A
:101C8000174E254606EB0410817B052923D2DFE899
:101C900001F02103131A0A008573214611A001F0F7
:101CA00061FF12A005E0857321460EA001F05AFFE6
:101CB00012A001F057FF0EE08573214609A001F044
:101CC00051FF13A0F5E78573214606A001F04AFFF6
:101CD00013A0EEE78573641CE4B2042CD2D370BD6C
:101CE0007C01002025642D3E000000004255545424
:101CF0004F4E5F53494E474C450D0A0042555454D0
:101D00004F4E5F4C4F4E475F50524553530D0A00A4
:101D1000425554544F4E5F444F55424C450D0A00B6
:101D2000425554544F4E5F545249504C450D0A0091
:101D30000021418101810173417370472DE9F04118
:101D400004468079002502264FF00308012780B160
:101D5000012846D002284BD0032808D1A57167730B
:101D600065812089642802D9207B401E2073BDE84C
:101D7000F081A1882068FEF787FC30B1A188206837
:101D8000FEF782FC012802D002E0A77100E0A571F5
:101D9000607B012802D16089401C60812089642811
:101DA00002D90420A07317E0A0F115014F2913D325
:101DB00061891429DBD9801F0E28D8D2207B012805
:101DC00004D0022804D0032804D005E0A77303E060
:101DD000A67301E084F80E802046BDE8F041FFF7CD
:101DE000A7BFA671207B401C207365732581BEE7C9
:101DF000A1882068FEF748FC40B1A1882068FEF762
:101E000043FC0128B3D184F80680B0E7A67120898D
:101E1000401C2081ABE7000000B585B00020039096
:101E20002E48816941F010018161816901F0100142
:101E30000491816941F020018161816901F02001F3
:101E40000491816941F008018161816901F0080113
:101E50000491816941F0040181618069694600F063
:101E6000040004904FF2FB5000901D4801900120A7
:101E700002901C48FEF718FB002211460620FEF7D0
:101E800075FC0620FEF764FC002211460720FEF7D1
:101E90006DFC0720FEF75CFC002211460920FEF7CE
:101EA00065FC0920FEF754FC002211460A20FEF7CB
:101EB0005DFC0A20FEF74CFC002211461720FEF7BD
:101EC00055FC1720FEF744FC002211462820FEF79F
:101ED0004DFC2820FEF73CFC05B000BD0010024080
:101EE00000001110000C014010B586B00024164807
:101EF000009401940294039404944FF0804105945B
:101F000001604721C0E9011440F2E731C0E9031440
:101F10008461FFF72BFC08B1FEF7A0F94FF4805065
:101F2000009069460848FFF797FC08B1FEF796F95C
:101F3000049404A904480594FFF7E4FB002801D0A9
:101F4000FEF78CF906B010BDBC0100200C4810B59E
:101F50000A4901604FF4E1314160002181600C22A7
:101F6000C160C0E904128161C161FFF79AFD0028D8
:101F700003D0BDE81040FEF771B910BD0038014034
:101F80000402002010B500220B490C4800F068FD47
:101F900008B1FEF763F90A49084800F034FF08B1B8
:101FA000FEF75CF9054800F083FF002803D0BDE888
:101FB0001040FEF753B910BD0C0000204C02002069
:101FC00070000020FEE7FEE72DE9F84F044640F6DA
:101FD0008F7B48F60F794FF480684FF0000ABDE11F
:101FE000B0F8441011F00F0539D030F825603104F5
:101FF0007ED530F8251001EA0B0141F0800120F870
:10200000251005EB850004EBC00797F85C0107F588
:10201000A87700286DD0F87802286BD0397822682C
:1020200032F8210048F68F73184048F2C003184375
:1020300022F821003978206830F82120B0F850309B
:1020400052047DD5022202EBC1015A1808EB42016D
:10205000415A8905890D009173D03A89DDE0C9069E
:102060002BD4018801EA090141F400410180206874
:1020700004F11005B0F85030217C022202EBC101BE
:102080005A1808EB4201405AC0F30900E062616A45
:102090000844606200212046FEF7B9FB607B0028FF
:1020A0009DD0A86900289AD1607B216840F080000B
:1020B000A1F84C0084F80DA050E1018804F5A87542
:1020C0000A0521D5B0F850202B78062101EBC30179
:1020D0000A4408EB4201405A04F52671C0F3090393
:1020E000EB61EA88206801F00BFD2068018802E0BE
:1020F000AEE06EE07EE001EA0B0141F0800101807C
:102100002046FEF7CFFF29E10904D5D5018801EA71
:102110000B0141F0800101802068B0F850202B783D
:10212000062101EBC3010A4408EB4201405A830532
:102130009B0DEB6110D0696971B1EA88206801E0FC
:102140005FE05DE001F0DCFCE96968690844686112
:1021500000212046FEF764FB216808880205ABD405
:10216000C0F301300328A7D0B1F850000844B0F8FC
:102170000C14C1F30901A0F80C142A6900F20C40F8
:102180003E2A09D95109D20600D1491E02884FF4CE
:10219000004343EA812109E0B2B15108D20700D0DF
:1021A000491C02884FF6FF7303EA81210A4302802B
:1021B000216808884BF68F72104080F4405048F236
:1021C000800210430880C9E0018841F40041018089
:1021D000EEE72068B0F850203B78062101EBC30100
:1021E0000A4408EB4201415A8905890D009118D033
:1021F000FA8812E0324639462046FEF76DFB009021
:102200000FE0062202EBC1015A1808EB4201415AC5
:102210008905890D009104D07A897969009B01F0C4
:102220006FFCF86900990844F861796900980844DE
:102230007861B86918B139690098814204D9397850
:102240002046FEF7EDFA03E03946206801F0D4F9A4
:1022500030062ED505EB850004EBC001206830F870
:10226000252002EA090242F4004220F82520C87C19
:10227000103101281ED0F0056CD42068B0F8503021
:102280000D78022202EBC5021A4408EB4202805A82
:102290008A69C0F30900824255D9121A8A6154D062
:1022A0004A6902444A61CA691044C861206801F061
:1022B000A3F953E0C1F818A0087B524608B3700692
:1022C00020D5487810B1012812D03AE02068B0F843
:1022D000502010440A7800EB0210B0F80424C2F336
:1022E0000902A0F80424B0F8042442F4004206E0F5
:1022F0002068B0F8503018440B7800EB0310A0F8B9
:1023000004241EE04B78206813B1012B11D018E093
:10231000B0F8502010440A7800EB0210B0F80C24FA
:10232000C2F30902A0F80C24B0F80C2442F40042D5
:1023300005E0B0F8503018440B7800EB0310A0F81B
:102340000C24097802E0C1F818A0E9B22046FEF793
:102350005EFA03E032462046FEF731FB2068B0F813
:10236000441009043FF53CAE0020BDE8F88F7047EB
:102370007047FEF795B930B593B028216846FDF750
:10238000DAFE14210AA8FDF7D6FE002401200F94DE
:1023900010941194010412948DE8130004904FF4EA
:1023A000E010CDE90810022507956846FFF704F80C
:1023B00008B172B6FEE70F20CDE90A054FF4806040
:1023C000CDE90C4002210AA80E94FEF713FF08B1D4
:1023D00072B6FEE710200F9012940FA8FEF794FE3D
:1023E000002801D072B6FEE713B030BD7047000080
:1023F0000148FFF7A0BA0000BC010020F0B5026858
:10240000194B1A4C1A4D4FF08047984205D0B842EC
:1024100003D0A04201D0A84203D122F070064A683E
:102420003243984205D0B84203D0A04201D0A8421E
:1024300003D122F44074CA6822434C6922F080021E
:10244000224302608A68C2620A688262984201D1AD
:1024500009690163012141610169C90703D001696B
:1024600021F001010161F0BD002C01400004004099
:102470000008004010B5846842EA032224F47F4437
:102480000A432243826010BD826822F070020A4330
:1024900042F007018160704710B5036A046A24F0B6
:1024A00001040462846924F0F00444EA021423F075
:1024B0000A020A438461026210BD10B5036A046A0D
:1024C00024F010040462846923F0A00324F470440F
:1024D00044EA023243EA01118261016210BD0168DF
:1024E0000C3151E8002F22F4907241E80023002BB8
:1024F000F5D10168143151E8002F22F0010241E8C2
:102500000023002BF5D1016B012909D101680C31A1
:1025100051E8002F22F0100241E80023002BF5D1F2
:10252000202180F8421000210163704770B50446F5
:1025300000680169E26821F4405111430161216999
:10254000A0680843616908432168CA6841F20C63C6
:102550009A430243CA6020684169A26921F440712C
:10256000114341611E492068884202D1FEF7EEFE08
:1025700001E0FEF7DBFE00EBC00101EB001260683A
:1025800064218000B2FBF0F3B3FBF1F36FF01806A7
:102590007343B2FBF0F5B2FBF0F605EB8305322393
:1025A00003EB0515B5FBF1F5B6FBF1F605F0F0050B
:1025B00005EB0615B2FBF0F6B2FBF0F0B0FBF1F064
:1025C0006FF01802504306EB800003EB0010B0FBE5
:1025D000F1F0216800F00F002844886070BD000011
:1025E000003801402DE9F843984617460D46044649
:1025F000089E24E0701C22D0FEF74CF8A0EB0800E7
:10260000B0421AD8CEB12068C168490717D5802DCD
:1026100015D0402D13D00168C94309070FD40168B4
:102620000025406800902046FFF759FF08206064AD
:1026300084F840500120BDE8F8830320FBE72068C0
:10264000006835EA000004D00020B842D2D0002053
:10265000F1E70120F9E710B5D0F8B42252689047AD
:10266000002010BD134610B50A46002100F013FBF0
:10267000002010BD134610B50A46002100F0A6FB4D
:10268000002010BD10B50446802100F084FB2046D8
:10269000BDE81040002100F07EBB10B505210023ED
:1026A000C0F894121A46194600F0F5FA002010BD41
:1026B00010B50223C261C0F89432026213460A4682
:1026C000002100F083FB002010BD10B50421002381
:1026D000C0F894121A46194600F078FB002010BD8D
:1026E00010B50A46024903A000F0E2F8004810BD08
:1026F000FC07002048494420436F6E66696700006C
:1027000012200880004870472C00002010B50A46AF
:10271000024903A000F0CCF8004810BDFC070020DF
:1027200048494420496E7465726661636500000023
:1027300004200880004870472800002010B50A4691
:10274000024903A000F0B4F8004810BDFC070020C7
:1027500053544D6963726F656C656374726F6E6913
:102760006373000010B50A46024903A000F0A0F808
:10277000004810BDFC07002053544D3332204875EB
:102780006D616E20696E746572666163650000003C
:1027900010B51A2008800A480168001D0468001D51
:1027A0000068081809D008220649FFF737FA0549DA
:1027B000042210312046FFF731FA0248801E10BD76
:1027C000E8F7FF1F42000020F8B504460020ADF8EE
:1027D000000048880D46010A082948D2DFE801F0C8
:1027E0004704091747473C45D4F8B012207C0A68D3
:1027F00019E0207C02260028D4F8B40205D0C16A72
:1028000068468847014646703EE0816AF8E7C0B2F4
:1028100006282CD2DFE800F0030A1014181CD4F8A4
:10282000B002426805E0694690471CE0D4F8B00267
:102830008268E2B1207CF6E7D4F8B002C268F8E71B
:10284000D4F8B0020269F4E7D4F8B0024269F0E7C4
:10285000D4F8B0028269ECE7207C40B9D4F8B40225
:10286000416B6846884701460EE0207C20B129462E
:102870002046FFF707FFF8BDD4F8B402016B6846A5
:102880008847014607204870BDF8000048B1EA8833
:1028900052B1824200D90246ADF800202046FFF72F
:1028A00007FFE8880028E6D12046FFF70EFFF8BDB5
:1028B00070B5002300281ED00446002502E06D1CE0
:1028C000EDB2641C2678002EF9D1022404EB4504F5
:1028D00014801278CA545B1C0322CA5400245B1C67
:1028E00006E0CA545B1CDAB28C54521CD3B2401CB2
:1028F0000278002AF5D170BD01004FF0000004D02D
:10290000012901D0022901D002207047012070471F
:10291000D0F8B802002101730846704770B504462C
:10292000812100F0BBF80025E562D4F8B80218B1A7
:1029300000F01BFCC4F8B852002070BD0A210180D1
:102940000048704720010020222101800048704784
:10295000A80000202221018000487047CC00002000
:102960002221018000487047F000002010B5044685
:1029700004230322812100F082F90120E06210206B
:1029800000F0F4FBC4F8B80218B100210173084646
:1029900010BD022010BD000038B503460022D0F85B
:1029A000B802ADF8002014460A7812F0600216D082
:1029B000202A4AD14A78022A0ED0032A06D00A2AAF
:1029C00006D00B2A41D18978016042E001222BE038
:1029D0004988090A41603CE00122011D25E04A784E
:1029E00032B1062A0BD00A2A23D00B2A2DD128E097
:1029F00093F89C02032828D10222694615E04888F2
:102A00002222B2EB102F05D1CA884A2A00D94A22C5
:102A1000124809E02122B2EB102F16D10F48CA88C4
:102A20001838092A00D9092201461846FFF740FE46
:102A30000FE093F89C22032A07D1012200F108013C
:102A4000F3E793F89C22032A05D01846FFF71AFEF5
:102A50000224204638BD89788160FAE72C010020E5
:102A600010B580B1D0F8B43213B10023C0F8B4323D
:102A700009B1C0F8B012012180F89C12027000F078
:102A8000BBF8002010BD022010BD10B5D0F8C00268
:102A9000FDF7F5FEBDE81040FFF72EBF10B5D0F8EA
:102AA000C002FDF7C7FEBDE81040FFF725BF2DE9C6
:102AB000F0411746044651B1D4F8B40242691AB144
:102AC00094F89C02032851D00220BDE8F081D4F88C
:102AD0009432002504F11400022B03D0042B3AD0C9
:102AE000C3B33CE0D0E903639E4207D9F11AC16049
:102AF0008AB239462046FFF7BDFD12E08068B0FB80
:102B0000F3F103FB110199B9984211D3D4F898124B
:102B100088420DD2002211462046FFF7ABFDC4F8D3
:102B2000985200231A461946204600F0B4F816E0E1
:102B3000D4F8B402C16829B194F89C02032801D1E9
:102B4000204688478021204600F025F92046FFF7DF
:102B5000A4FD04E0FFE78021204600F01CF994F872
:102B6000A002012804D184F8A05201E02046904739
:102B70000020AAE770B51546044649B1D4F8B4025E
:102B800082691AB194F89C02032830D0022070BDEB
:102B9000D4F8941204F5AA70032902D005291ED096
:102BA00027E0D0E903218A420BD9531AC3600846B3
:102BB000834200D303469AB229462046FFF752FDCE
:102BC00017E0D4F8B402016929B194F89C020328F3
:102BD00001D1204688472046FFF777FD09E0002015
:102BE0000146C4F89402204600F0D5F801E02046E2
:102BF0009047002070BD000010B517490446C1F889
:102C0000D402C0F8C01215480860082008710220DC
:102C1000887100208872C87208730846FEF798F918
:102C200008B1FDF71BFB0022D4F8C002182311469F
:102C300004F53074FDF7CCFD582300228021206874
:102C4000FDF7C6FD4FF48073002281212068FDF757
:102C5000BFFD002010BD000024050020005C0040E6
:102C60000A0601F07F01D0F8C00201EB810100EB00
:102C7000C10001D5807C704790F85201704710B5B3
:102C80001C461346D0F8C0022246FEF734F8BDE8D1
:102C90001040FFF731BE10B5D0F8C002FEF757F86C
:102CA000BDE81040FFF728BE70B50022044640235F
:102CB0001146FFF7E4FF40260125C4F8646133465E
:102CC000002280212046C4F85851FFF7D8FF6662E1
:102CD000A56184F89C520020C4F894026060C4F896
:102CE000A402D4F8B80228B1D4F8B4020021426892
:102CF00020469047002070BD90F89C12042903D113
:102D000090F89D1280F89C120020704710B590F842
:102D10009C12032904D1D0F8B412C96901B18847C3
:102D2000002010BD01740020704710B5D0F8C0021B
:102D3000FEF7A5F9BDE81040FFF7DEBD70B504460B
:102D400000F52A70054600F04AF80120C4F8940204
:102D5000B4F8AE02C4F8980294F8A80210F01F016B
:102D60000AD001290DD0022910D000F080012046A0
:102D700000F011F8002070BD2946204600F09DF8B3
:102D8000F8E72946204600F0C9F9F3E7294620462E
:102D900000F01CF9EEE710B5D0F8C002FDF7EEFF29
:102DA000BDE81040FFF7A8BD10B5D0F8C002FEF78F
:102DB00080F9BDE81040FFF79FBD90F89C1280F8A5
:102DC0009D12042180F89C120020704710B5D0F8A5
:102DD000C002FEF70BF8BDE81040FFF78DBD0A7882
:102DE00002704A7842708A78CB7802EB03224280E4
:102DF0000A794B7902EB032282808A79C97902EB46
:102E00000121C18070470246002011B1C2F8B412FE
:102E100070470220704710B5D0F8B42202241AB1CE
:102E20001268904700B90024204610BD70B50E46C8
:102E30001E4D897804462970012931D894F89C02E6
:102E400002280BD003280FD031462046FFF71AFC8A
:102E500029782046BDE87040FFF7FDBBD9B10320BB
:102E6000616084F89C0209E071B16068884212D008
:102E7000C1B22046FFF7EFFB297861602046FFF7DB
:102E8000CAFF02280CD006E0022084F89C022046EB
:102E90006160FFF7E0FB2046BDE87040FFF715BC1E
:102EA00031462046BDE87040FFF7ECBB6C000020C7
:102EB00010B5FFF779FF002010BD2DE9F0410A7829
:102EC000002612F0600208D0202A01D0402A70D1DA
:102ED000D0F8B422926890476DE04B78002201252B
:102EE0000A2B66D2DFE803F0405D6557650805658B
:102EF0002C29FFF769FC5EE004468888D8B9C888A9
:102F0000C8B94888802816D200F07F0794F89C0240
:102F1000032810D084F89E7239462046FFF705FF3B
:102F20002046FFF7D2FB1FB1022084F89C0242E04A
:102F300084F89C523FE020463BE0FFF777FF3AE001
:102F4000CB88012B35D190F89C32012B04D0022B79
:102F500002D0032B2DD104E08260012200F1080190
:102F600016E00122011D13E090F89C22012A03D0F3
:102F7000022A01D0032A1CD1CA88022A19D1C560AD
:102F8000D0F8A41209B10321C160022200F10C01A2
:102F9000FFF78EFB0FE0498801290CD1C0F8A4523D
:102FA00011E090F89C32012B08D0022B06D0032BA5
:102FB00004D0FFF767FB3046BDE8F081498801295E
:102FC000F9D1C0F8A422FFF780FBF4E72DE9F04126
:102FD0000A46044610780027097910F060030AD0E9
:102FE000202B01D0402B50D1D4F8B4021146836875
:102FF000204698478FE0C0F34110012806D0507852
:10300000D0B301282AD003283FD107E0D4F8B40276
:10301000114683682046BDE8F041184794F89C02A9
:10302000022802D0032872D10AE071B380296ED041
:103030002046FFF7B0FE80212046FFF7ACFE6AE095
:10304000508838B931B1802904D0D08810B92046D1
:10305000FFF7A1FE2046FFF738FB5CE094F89C02E6
:103060000228E2D0032852D1508898BB4806F1D0FC
:103070002046FFF70AFDEDE7FFE794F89C020026E3
:10308000022803D0032842D112E040E009B1802990
:103090003DD1080601F07F0000EB800004EB8001C9
:1030A00001D5143101E001F5AA7102220E602AE077
:1030B000080601F00F0000EB800004EB80000AD549
:1030C000806920B301F07F0000EB800004EB8005F5
:1030D00014350BE01FE0D0F85801C0B101F07F00BB
:1030E00000EB800004EB800505F5AA7541B180294D
:1030F00006D02046FFF7B4FD10B10120286000E0A3
:103100002E60022229462046FFF7D2FA03E011463C
:103110002046FFF7B7FA3846BDE8F08170B505469E
:1031200008780C4610F0600003D0202801D0402819
:1031300016D195F89C02012803D0022801D003285B
:103140000ED1207901280BD8D5F8B4028268284620
:103150009047E188014306D12846FFF7B6FA02E01E
:103160002846FFF78FFA002070BD7047004870476F
:10317000100500202DE9F0470C78002630F82430A7
:1031800048F68F121340CA78002A78D0012A7CD0E2
:10319000022A02D0032A75D0012648F28002134386
:1031A00020F824300D7830F8253048F68F7423400D
:1031B0002B43134320F825300D7B48F2C00948F615
:1031C000BF734CF2800A4BF68F77EDB3CD7891F850
:1031D00000C0022D30F82C507DD048F68F6805EAEB
:1031E0000805154320F82C50B0F8505091F800C055
:1031F000054405EB0C15B1F808C02CF0010CA5F83E
:1032000000C4B0F8505091F800C0054405EB0C150F
:10321000B1F80AC02CF0010CA5F808C44D78002DB7
:103220007ED00D7830F825C05FEA4C4C07D530F8D9
:1032300025C00CEA040C4CEA0A0C20F825C091F8D1
:1032400000C030F82C5000E022E06D0606D530F8C2
:103250002C50254045EA090520F82C50CC780D78F3
:10326000012C30F8254004EA03047CD084F02003CC
:10327000134320F82530C1E001E006E002E043F40A
:1032800000738AE743F4C06387E743F4806384E70D
:103290004D784DB3B0F850500F78054405EB071545
:1032A000CF8827F00107A5F800740F7830F8275071
:1032B0006D0606D530F82750254045EA090520F867
:1032C0002750CC78012C07D00C7830F82410194006
:1032D00081F0200104E064E00C7830F824101940FB
:1032E000114320F8241090E0B0F850300D780344DA
:1032F00003EB0513CD8825F00105A3F80854B0F8B9
:1033000050300D78034403EB0513B3F80C54C5F3A8
:103310000905A3F80C540D6903F20C433E2D00E09F
:1033200045E00BD94FEA551CED0601D1ACF1010C7B
:103330001D884FF4004848EA8C2C0BE035B34FEA67
:10334000550CED0701D00CF1010C1D884FF6FF78EC
:1033500008EA8C2C45EA0C051D800D7830F82530E4
:103360005B0408D500E046E030F82530234043EA0E
:103370000A0320F82530097861B130F821303B404C
:1033800083F40053134320F821303EE01D8845F4B8
:103390000045E1E70188394081F440511143018043
:1033A00033E0254048F2801845EA08051AE791F80D
:1033B00000C030F82C506D0406D530F82C50254054
:1033C00045EA0A0520F82C5091F800C030F82C503E
:1033D0006D0606D530F82C50254045EA090520F841
:1033E0002C500D7830F825403C4084F44054144370
:1033F00020F8254070E7144320F825400B7830F87A
:1034000023103940114320F823103046BDE8F087DF
:10341000002070472DE9F04391F80C804F780A782E
:1034200048F6BF7C4BF68F7948F2800348F2C0051E
:103430004CF2800648F68F74B8F1000F28D0002FA8
:1034400030F822704FEA474748D0002F05DA30F8AD
:1034500022702740374320F822700A7830F8227013
:103460007F0605D530F8227027402F4320F82270C0
:103470000D7830F825202240324320F825200C78A2
:1034800030F8242002EA0C021A4320F824201AE023
:103490007FB130F82260760605D530F822602640EC
:1034A0002E4320F822600A7830F8221001EA0C013D
:1034B0000EE030F822506D0405D530F8225025403A
:1034C000354320F822500A7830F8221001EA090129
:1034D000194320F822100020BDE8F083002F05DA00
:1034E00030F822702740374320F822700A7830F8ED
:1034F0002260760605D530F8226026402E4320F85B
:1035000022600E7830F8262022402A4320F8262018
:103510000C7830F8242002EA09021A4320F824200B
:10352000C1E70020704700207047012120F8401FAC
:1035300000210180818001820846704730F8401FD9
:1035400021F43F410180002070470020704730B5D2
:103550000A7BB2BB4A7848F68F7548F28004C2B144
:103560000B7830F82320520607D530F823202A4064
:1035700048F2C0052A4320F82320CA78012A20D027
:103580000A7830F8221048F6BF73194081F0200104
:1035900014E00A7830F822305B0407D530F8223086
:1035A0002B404CF280052B4320F822300A7830F86B
:1035B00022104BF68F73194081F44051214320F8BB
:1035C0002210002030BD10B54A780978002A48F250
:1035D000800330F8212005D048F6BF74224082F0E5
:1035E000100204E04BF68F74224082F480521A439A
:1035F00020F82120002010BD2DE9F0470D464B7822
:10360000097B04464FF0000948F68F7248F2800AA1
:103610004FF400474FF6FF78012B09D000296FD0F7
:10362000E87802286DD001286CD00120BDE8F08731
:10363000AE692869864200D9064691B1E978022927
:103640001ED0286A801B2862287834F8201049068A
:10365000B4F85010214401EB001073D5A0F80C64AD
:1036600016E1B3B2EA882046696900F067FAB4F857
:1036700050002978204400EB0110A0F804640DE10B
:10368000296A814277D9297834F82100104048F21C
:103690008012104324F82100286A801B28622878B1
:1036A00034F820104906697871D511B101292AD062
:1036B00030E0B4F85010214401EB0010B0F80C14C5
:1036C000C1F30901A0F80C1400F20C403E2E07D9FA
:1036D0007109F20600D1491E028847EA812107E0FC
:1036E0004EB17108F20700D0491C028808EA812116
:1036F0000A4302800EE0018841F40041018009E0A4
:10370000F1E020E195E1B4F85020111901EB00102F
:10371000A0F80C646A89B3B22046696900F00EFA19
:103720006869304468612969286A884202D9801B27
:10373000286202E00646C5F82090687818B1012892
:103740002BD032E02FE0B4F850002978204400EB71
:103750000110B0F80414C1F30901A0F8041400F238
:1037600004403E2E08D97109F20600D1491E028894
:1037700047EA812108E0A1E056B17108F20700D0C4
:10378000491C028808EA81210A4302800DE00EE00C
:10379000018841F40041018007E0B4F85000297825
:1037A000204400EB0110A0F804642A8971E011B1F3
:1037B000012927D02DE0B4F85010214401EB00106E
:1037C000B0F80414C1F30901A0F8041400F2044095
:1037D0003E2E07D97109F20600D1491E028847EA38
:1037E000812107E04EB17108F20700D0491C028820
:1037F00008EA81210A4302800BE0018841F400417C
:10380000018006E0B4F85010214401EB0010A0F84C
:1038100004642A89B3B22046696900F08FF96869A7
:10382000304468612969286A884202D9801B28626D
:1038300002E00646C5F82090687810B1012836D01D
:1038400026E0B4F850002978204400EB0110B0F8CD
:103850000C14C1F30901A0F80C1400F20C403E2E28
:1038600007D97109F20600D1491E028847EA812171
:1038700007E04EB17108F20700D0491C028808EA3F
:1038800081210A43028003E0018841F40041018064
:103890006A89B3B22046696900F050F9297834F892
:1038A000210048F6BF72104080F030000FE1B4F8FC
:1038B00050100819297800EB0110CFE62A7834F867
:1038C000220048F68F63184040EA0A0024F82200DC
:1038D000B4F850002A78204400EB02108BB2A0F814
:1038E00004342A89D6E7A9692869814202D9091ACC
:1038F000A96102E00846C5F81890B4F850102A787B
:10390000214401EB0211B1F80C24C2F30902A1F821
:103910000C2401F20C413E287DD94209C00600D199
:10392000521E088847EA82220AE0088840F40040D4
:1039300007E04208C00700D0521C088808EA82222B
:1039400010430880BBE033BBB4F850002978204412
:1039500000EB0110B0F80414C1F30901A0F804143D
:10396000296900F204403E2907D94B09C90600D154
:103970005B1E018847EA832307E041B14B08C90772
:1039800000D05B1C018808EA8323194302E0018808
:1039900041F400410180687810B1012828D030E05E
:1039A000B4F850002978204400EB0110B0F80C1452
:1039B000C1F30901A0F80C14296900F20C403E295A
:1039C00007D94B09C90600D15B1E018847EA83234A
:1039D00007E041B14B08C90700D05B1C018808EA29
:1039E0008323194302E0018841F40041018008E08B
:1039F000B4F850100819297800EB0110298AA0F8B2
:103A00000C14E869C0B3297834F82100430401D5C7
:103A1000430605D400E046E044F2400318424ED18C
:103A200034F82100104048F2C002104324F821006D
:103A300045E0A9692869814202D9091AA96102E011
:103A40000846C5F8189013BBB4F850102A782144E2
:103A500001EB0211B1F80424C2F30902A1F8042415
:103A600001F204413E2808D94209C30600D1521E82
:103A70000B8847EA822208E021E078B14208C307B8
:103A800000D0521C0B8808EA822213430B8069780D
:103A900000293FF42EAF012909D010E00A8842F432
:103AA00000420A80F3E700287FF443AF3DE7B4F813
:103AB000502011192A7801EB0211A1F80C04297881
:103AC00034F821004BF68F72104080F4405040EAE9
:103AD0000A0024F821000020A8E50021A0F84410E5
:103AE0004FF43F41A0F84010002070470148FDF717
:103AF00095B9000024050020B0F84400704700008C
:103B000010B500EB42005C0800F5806009D000BFF2
:103B100030F8042B01F8012B120A01F8012B641E66
:103B2000F6D1DA0701D00088087010BD0020704778
:103B300011B98021A0F84C100020704710B55B1C13
:103B400000EB42005B0800F5806009D011F8012B02
:103B500011F8014B42EA042220F8042B5B1EF5D138
:103B600010BDFEE70FB4054B10B503A9044A029837
:103B700000F028F810BC5DF814FB0000193D0008A7
:103B8000780100200907090E002804DB00F1E0207D
:103B900080F80014704700F00F0000F1E02080F87A
:103BA000141D704702E008C8121F08C1002AFAD18C
:103BB00070477047002001E001C1121F002AFBD1AD
:103BC000704700002DE9FF4F89B09B460446002551
:103BD00006E025280BD05A460B999047641C6D1CB3
:103BE00020780028F5D10DB02846BDE8F08F0027D9
:103BF000B8460122474900E0074314F8013F203B43
:103C000002FA03F00842F7D120782E2819D114F8CF
:103C1000010F47F004072A280ED06FF02F022078FA
:103C2000A0F1300109290CD808EB880102EB410111
:103C300000EB0108641CF2E70A98641C50F8048B3E
:103C40000A9020780028CED0642808D0692806D0B1
:103C500075281ED05A460B9990476D1C58E00A995A
:103C60004FF00A0901C90A91002802DA40422D21C9
:103C700002E0390504D52B218DF82010012103E045
:103C8000F90704D02021F7E78A4608AE0DE00021AD
:103C9000FAE70A994FF00A0901C90A91F7E749467C
:103CA000FCF754FA303106F8011D0028F7D1ADEBCE
:103CB000060000F12009780701D44FF00108C8453B
:103CC00002DDA8EB090000E000208046002706E0A6
:103CD00008A85A46C05D0B9990476D1C7F1C57453C
:103CE000F6DB04E030205A460B9990476D1CB8F182
:103CF0000001A8F10108F5DC05E016F8010B5A46B1
:103D00000B9990476D1CB9F10001A9F10109F4DC90
:103D1000641C65E70928010013B5032301226946E5
:103D20000248FDF729FF00981CBD00000402002096
:103D3000FCF7BEFCFEF71FFBFEF76EF8FEF706F978
:103D4000FEF720F9FEF7D0F811A0FFF70BFFFDF703
:103D5000E7FA014613A0FFF705FFFDF7E7FA014672
:103D600015A0FFF7FFFEFDF7F1FA014617A0FFF7D8
:103D7000F9FEFDF7FBFA014619A0FFF7F3FEFDF788
:103D800069FF1C48FDF73CFDFDF778FFFCE70000EC
:103D9000496E697469616C697A6520646F6E65212A
:103DA0000D0A000048434C4B2046726571203D20AF
:103DB00025640D0A0000000050434C4B3120467230
:103DC0006571203D2025640D0A00000050434C4BD6
:103DD000322046726571203D2025640D0A000000E6
:103DE000535953434C4B2046726571203D20256446
:103DF0000D0A0000BC0100200102020304050607B1
:103E000008090A0B0C0D0E0F101000000000000036
:103E10000000010203040607080900000000010277
:103E200003040000443E0008000000207C01000064
:103E30009C0100081C3F00087C010020840C00004D
:103E4000B43B0008C11301271B0831041A3D041AB2
:103E500065041A910413E1261B080D0817040309D1
:103E60000412013202164034122B572602010203BB
:103E700001031A1A03191F11821053127A136D29A4
:103E80001B081D041A9904819A110C811A55141AE1
:103E900049041A61041A3D04140902221301011D88
:103EA000E03209045914030102150921110114011A
:103EB000224A160705810304220A091F240A210742
:103EC0002429486912314B0A06F429CC100A05014D
:103ED0000902A1010901A110080509190129031509
:103EE000180F250195037501810295017505810162
:103EF00020281730093109381581257F7508950369
:103F00008106C0093C05FF090129600E7501950273
:0C3F1000B12275069501B101C00000004F
:04000005080000ED02
:00000001FF
